:020000040800F2
:1000000000000220919B00083D12000841120008E8
:1000100045120008491200084D12000800000000B7
:100020000000000000000000000000005112000865
:100030005512000800000000591200085D12000867
:10004000E19B0008E19B0008E19B0008E19B0008A0
:10005000E19B0008E19B0008E19B0008E19B000890
:10006000E19B0008E19B0008E19B0008E19B000880
:10007000E19B0008E19B0008E19B0008E19B000870
:10008000E19B0008E19B0008E19B0008E19B000860
:10009000E19B0008E19B0008E19B0008E19B000850
:1000A000E19B0008E19B0008E19B0008E19B000840
:1000B000E19B0008E19B0008E19B0008E19B000830
:1000C000E19B0008E19B0008E19B0008E19B000820
:1000D000E19B0008E19B0008E19B0008E19B000810
:1000E000E19B0008E19B0008E19B0008E19B000800
:1000F000E19B0008E19B0008E19B0008E19B0008F0
:10010000E19B0008E19B0008E19B0008E19B0008DF
:10011000E19B0008E19B000861120008E19B0008D8
:10012000E19B0008E19B0008E19B0008E19B0008BF
:10013000E19B0008E19B0008E19B0008E19B0008AF
:10014000E19B0008E19B0008E19B0008E9A300088F
:10015000E19B0008E19B0008E19B0008E19B00088F
:10016000E19B00086D970008E19B0008E19B0008F7
:10017000E19B0008E19B00087D120008891200083D
:10018000E19B0008E19B0008E19B0008E19B00085F
:10019000E19B000800000000E19B0008E19B0008D3
:1001A0001D8C0008E19B0008E19B0008E19B000812
:1001B000E19B0008E19B0008E19B0008E19B00082F
:1001C000E19B0008E19B0008E19B0008E19B00081F
:0801D000E19B0008E19B00081F
:1001D8000348044B834202D0034B03B118477047CE
:1001E8005C0000205C000020000000000548064B71
:1001F8001B1AD90F01EBA301491002D0034B03B11D
:10020800184770475C0000205C00002000000000D8
:1002180010B5064C237843B9FFF7DAFF044B13B146
:100228000448AFF300800123237010BD6000002054
:1002380000000000E49B000808B5044B1BB104490A
:100248000448AFF30080BDE80840CFE70000000095
:1002580064000020E49B000870B50F4B0F4DAB42C3
:10026800A3EB050607D0B610002455F8043B01346B
:100278009847A642F9D809F0B1FC094D094B5E1B15
:10028800AB424FEAA60606D0002455F8043B0134D9
:100298009847A642F9D870BDB8A70008B8A70008C3
:1002A800B8A70008C8A70008830730B547D0541E70
:1002B800002A3ED0CAB2034601E0013C39D303F814
:1002C800012B9D07F9D1032C2CD9CDB205EB0525BF
:1002D8000F2C05EB054535D9A4F1100222F00F0CBF
:1002E80003F1100EE6444FEA121C1A46C2E9005503
:1002F800C2E9025510327245F8D10CF1010214F02E
:100308000C0F03EB021204F00F0C13D0ACF1040332
:1003180023F003030433134442F8045B9342FBD1F4
:100328000CF003042CB1C9B21C4403F8011BA3420E
:10033800FBD130BD64461346002CF4D1F9E70346DF
:100348001446C0E71A46A446E0E700BF00000000D4
:1003580010B594B03822002106A8FFF7A5FF0020A9
:10036800CDE90100CDE90300059004F08BF89FED7D
:10037800127B02230324552206A88DED067BCDE9C6
:100388000D34CDE90F32CDE91133139303F0B0F8F2
:1003980008B172B6FEE7042103460F220DEB0100F7
:1003A800CDE90124CDE90333059303F01BFB08B124
:1003B80072B6FEE714B010BD010000000000010095
:1003C80008B503F035F8FFF7C3FF00F02FF801F088
:1003D800DBFC01F00DF800F089F800F051F900F0AD
:1003E80075FB00F035FE00F0F1FB00F085FC00F035
:1003F80027FC00F0E7F900F0C3FC00F0A7FC01F0CF
:10040800FDFC01F0C3FE01F0D9FD01F0DFFC01F0B5
:100418000DFD01F0EFFD01F009FE00F0A9FE01F06D
:10042800B3FD09F04DFBFEE772B6FEE730B50024D8
:100438008BB0CDE90444CDE906442A4B0894DA6C24
:10044800294842F00402DA64DA6C02F004020092ED
:10045800009ADA6C42F02002DA64DA6C02F02002C8
:100468000192019ADA6C42F00102DA64DA6C02F065
:1004780001020292029ADA6C42F00202DA64DB6C40
:1004880003F00203039322468021039B03F006FF37
:1004980022464FF400414FF0904003F0FFFE012543
:1004A8004FF40052002304A90F480695CDE9042310
:1004B80003F030FD802304A90B480493CDE90554CB
:1004C800079403F027FD4FF40042032304A94FF0DB
:1004D8009040CDE90425CDE9064303F01BFD0BB0A0
:1004E80030BD00BF001002400008004810B50024CD
:1004F80092B0214620220AA8CDE90144CDE904445E
:10050800CDE90644CDE9084400940394FFF7CCFEF6
:10051800534B1A46C3E902441C619C8383F8244068
:1005280083F8404018460123536182F83830042389
:10053800936113624FF0A0414FF44033C2E90013B6
:100548004FF4D4644FF48063C2E90B434FF48053F3
:10055800D36301F0B1FE002866D14FF400430622B0
:10056800CDE900233E4800236946029302F090FE3D
:10057800002872D13B493C4A05924FF440000023C1
:10058800CDE9031040F6FF7235488DF8183003A9FD
:10059800CDE90723099302F07DFA00285AD1334A9E
:1005A8002F480623CDE90A2302217F23CDE90C1326
:1005B800042200230AA9CDE90E2301F0DDFF00285B
:1005C80045D12B4A26480C230AA9CDE90A2301F074
:1005D800D3FF002838D1244A214812230AA9CDE99B
:1005E8000A2301F0C9FF60BB224A1D4818230AA943
:1005F800CDE90A2301F0C0FF00BB1F4C1B4B184874
:1006080005934FF0E07203A9CDE9034202F042FAE4
:1006180088B91A4A164B1248039203A9059302F0A7
:1006280039FA20B912B010BDFFF7FEFE95E7FFF7C3
:10063800FBFE12B010BDFFF7F7FEEAE7FFF7F4FE86
:10064800DBE7FFF7F1FECFE7FFF7EEFEC3E7FFF7C3
:10065800EBFEB6E7FFF7E8FEA1E7FFF7E5FE89E75F
:10066800180200200000C07D001060320002B02592
:10067800000180210800900CFFFF1700FFFF2700F2
:1006880010B52022002490B00DEB02002146CDE9E0
:100698000144CDE90344CDE905440794FFF704FE7E
:1006A800414A424B13604FF4403353600123C2E97F
:1006B800044304239361136210464FF48053C2E944
:1006C8000244948382F8244082F83840D36382F845
:1006D800404001F0F1FD002850D13549354A0392D8
:1006E8004FF440000023CDE9011040F6FF722E4878
:1006F8008DF8103001A9CDE90523079302F0CAF956
:1007080000284ED12C4A28480623CDE90823022187
:100718007F23CDE90A130422002308A9CDE90C237D
:1007280001F02AFF002839D1224A1F480C2308A9C2
:10073800CDE9082301F020FF68BB12231A4809936A
:1007480008A901F019FF18BB1C4A1748182308A963
:10075800CDE9082301F010FFB8B9194C164A0392E5
:100768004FF0E070CDE9014001230F488DF81030BB
:1007780001A902F08FF920B910B010BDFFF754FE9F
:10078800ABE7FFF751FE10B010BDFFF74DFEE4E7F1
:10079800FFF74AFED8E7FFF747FECEE7FFF744FE2C
:1007A800C2E7FFF741FEADE7AC01002000010050B1
:1007B8000000C07D0800900C2000F0148000501D3F
:1007C800FFFF170010B588B0202200216846FFF708
:1007D8006BFD2348234901604FF4403141600421F7
:1007E800816102210023012201624FF48051C0E996
:1007F8000233C0E90432C0E90B33838380F8243024
:1008080080F83820C16380F8403001F055FDE0B928
:10081800154913480623CDE900137F2404220293C7
:1008280069460023CDE90342059301F0A5FE98B976
:100838000E4C0B480C2205236946CDE90042029371
:1008480001F09AFE20B908B010BDFFF7EDFDDFE713
:10085800FFF7EAFD08B010BDFFF7E6FDE8E700BFC7
:1008680040010020000500502000F0141000C010C6
:1008780070B50446A4B0002154220FA8CDE90A118E
:10088800CDE90C110E91FFF70FFD2368B3F1A04FCE
:1008980008D0844A934278D0834A934200F0B980C2
:1008A80024B070BD4FF400424FF000530FA80F92D0
:1008B800209303F0A1F9002840F0EA807B4A1368EE
:1008C8000133012B136009D1794BDA6C42F40052E1
:1008D800DA64DB6C03F400530193019B744B754895
:1008E800DA6C754D42F00402DA64DA6C02F0040244
:1008F8000292029ADA6C42F00102DA64DA6C02F0CF
:1009080001020392039ADA6C42F00202DA64DB6CA9
:1009180003F00203002604930C2203230AA9CDE95D
:100928000A230C96049B03F0F5FA042203230AA970
:100938004FF09040CDE90A230C9603F0EBFA02221F
:1009480003230AA95D480C96CDE90A2303F0E2FACD
:100958005B4A0523C5E90023C5E9026680234FF4F5
:1009680000712B614FF40063C5E9051320224FF491
:100978004053C5E90723284603F096FC002840F0B9
:1009880084806565AC6224B070BD4FF400424FF0BE
:1009980000530FA80F92209303F02EF900287AD164
:1009A800424A13680133012B136009D1404BDA6CBA
:1009B80042F40052DA64DB6C03F400530593059BA0
:1009C8003B4BDA6C42F00402DA64DA6C02F004029F
:1009D8000692069ADA6C42F00102DA64DB6C1220A5
:1009E800032103F00103CDE90A01079300240AA9B2
:1009F8003048079B0C9403F08DFA402203234FF0F4
:100A080090400AA9CDE90A230C9403F083FA24B094
:100A180070BD4FF480324FF000430FA80F9221931E
:100A280003F0EAF8002839D1214B2448DA6C254D27
:100A380042F48042DA64DA6C02F480420892089A3E
:100A4800DA6C42F00202DA64DB6C03F00203099309
:100A58004FF440420AA903230026CDE90A230C9645
:100A6800099B03F057FA184A2623C5E90023802377
:100A78004FF400712B614FF40063C5E90513C5E914
:100A8800026620224FF4005373E7FFF7CDFC78E7A6
:100A9800FFF7CAFC12E7FFF7C7FC81E7FFF7C4FCC2
:100AA800C2E700BF00010050000500507C00002094
:100AB8000010024000080048E00000200004004840
:100AC80008000240800000201C04024010B51048B5
:100AD800104C002301221121C4E900030720C4E9B6
:100AE8000620616120460221C4E90233C4E90922D3
:100AF800C4E90B22C4E90D232382A3742162E363B2
:100B080004F004F900B910BDBDE81040FFF78CBC33
:100B1800006C00408402002010B504469CB00021FF
:100B2800542207A8CDE90211CDE904110691FFF777
:100B3800BBFB234B22689A4201D01CB010BD4FF476
:100B480080524FF0007307A80792159303F054F8EA
:100B580050BB1C4B1C489A6D42F000729A659A6D06
:100B680002F000720092009ADA6C9FED117B42F05D
:100B78000202DA64DB6C8DED027B9FED0F7B03F0E4
:100B88000203019302A90B238DED047B0693019ABE
:100B980003F0C0F900220121582003F0FFFC58207F
:100BA80003F038FD1CB010BDFFF73EFCD1E700BFD5
:100BB8001800000002000000000000000000000013
:100BC800006C0040001002400004004800B51A49BB
:100BD8001A4A89B000230A600846D422CDE90433B2
:100BE800CDE90633CDE90133C1E901330393CA6086
:100BF8000B618B6106F0ECFD90B94FF480530E4801
:100C0800049304A907F012FB90B900230A48019342
:100C180001A9039307F000FE28B909B05DF804FBA9
:100C2800FFF702FCE9E7FFF7FFFB09B05DF804FBFB
:100C3800FFF7FAFBE9E700BFC00600200004004008
:100C480000B52B4A8DB00023CDE90833CDE90A332E
:100C5800CDE90133CDE90333CDE90533C2E90133E9
:100C68000793136180239361224B136010464FF062
:100C7800FF33D36006F0ACFD18BB4FF480531C481B
:100C8800089308A907F0D2FA48BB194807F012F8E8
:100C980010BB00231648019301A9039307F0BCFD7C
:100CA800B8B99FED117B00220023114804A98DEDEE
:100CB800047BCDE9062307F0EFF928B90DB05DF8FC
:100CC80004FBFFF7B1FBD8E7FFF7AEFB0DB05DF80B
:100CD80004FBFFF7A9FBE4E7FFF7A6FBD9E7FFF75B
:100CE800A3FBD2E7AFF30080000000000100000082
:100CF800F0050020000C004000B51248124985B0EC
:100D0800A92200234260F922CDE90133C0E9023269
:100D180003930160836106F05BFD50B90023094825
:100D2800019301A9039307F077FD28B905B05DF891
:100D380004FBFFF779FBF1E7FFF776FB05B05DF8F9
:100D480004FB00BF20050020001000400A480B49A2
:100D580010B500234FF6FF72C0E90013C0E9023254
:100D6800C0E90433836106F033FD00B910BDBDE866
:100D78001040FFF759BB00BF500400200044014059
:100D880000B51F491F4A89B000230A600846D422CB
:100D9800CDE90433CDE90633CDE90033C1E90133A8
:100DA800C1E904330293CA608B6106F011FDA8B94A
:100DB8004FF480531248049304A907F037FAA8B9EE
:100DC8009FED0D7B00230E48029369468DED007B55
:100DD80007F022FD28B909B05DF804FBFFF724FBF2
:100DE800E6E7FFF721FB09B05DF804FBFFF71CFB02
:100DF800E6E700BFAFF3008000000000000000003D
:100E0800800300200050014070B503685B4A8EB033
:100E180000249342CDE90844CDE90A440C942DD02E
:100E2800B3F1804F4DD0564A934233D0554A93423E
:100E380070D0554A934200F08B80544A934235D083
:100E4800534A934224D1534B186E40F480101866CD
:100E58001B6E03F480132246022107934E20079B42
:100E680003F09CFB4E2003F0D5FB224602214F20C5
:100E780003F094FB4F2003F0CDFB09E0454B1A6EBD
:100E880042F400621A661B6E03F400630093009B31
:100E98000EB070BD3F4B9A6D42F002029A659B6D91
:100EA80003F002030293029B0EB070BD394B1A6E19
:100EB80042F400321A661B6E03F400330693069B55
:100EC800E6E703F50433344E9A6DF46042F001020C
:100ED8009A659B6D3149F46103F0010301933A234C
:100EE800C6E900131022802305464FF400710198CB
:100EF800B26033614FF400624FF480533046C6E964
:100F08000512336203F0D0F9002834D1EE62B562DD
:100F18000EB070BD1F4B22489A6D42F008029A65C8
:100F28009A6D02F008020392039ADA6C42F0020208
:100F3800DA64DB6C03F00203049304240225022321
:100F480008A9CDE90845049A0C9302F0E3FF9FE74E
:100F5800104B986D40F0100098659B6D03F01003DE
:100F68000593224602213620059B03F017FB362005
:100F780003F050FB8CE7FFF757FAC7E7002C014056
:100F880000040040000C00400010004000440140F4
:100F980000500140001002401C03002008040240D9
:100FA800000400480000000000B50268244989B028
:100FB80000238A42CDE90233CDE90433069305D0F4
:100FC800B2F1804F1DD009B05DF804FB03F18043F6
:100FD80003F504339FED167BDA6C42F00102DA6404
:100FE800DB6C03F00103009302A906234FF0904045
:100FF8008DED027B009A069302F08CFF09B05DF834
:1010080004FB104B1048DA6C42F00202DA64DB6C25
:101018009FED097B03F00203019302A901238DEDE3
:10102800027B019A069302F075FF09B05DF804FB94
:101038000010000002000000000400000200000090
:10104800002C01400010024000040048000000008D
:1010580010B500249CB0342221460FA8CDE90544E0
:10106800CDE90144CDE90944CDE90B44CDE90D446E
:101078000494009408940794FFF716F93A4A3B49F8
:1010880094601023C2E9001340F6C313D3601046DE
:101098008023C2E90444936106F09AFB002848D1F2
:1010A8004FF480533048049304A907F0BFF8002890
:1010B80052D12D4806F002FD00284AD10023002213
:1010C800CDE90023284800236946029307F0A4FBD2
:1010D80000283BD19FED227B6022002308924FF429
:1010E800007421480B9308A904228DED0C7BCDE9EF
:1010F80009330E9407F03AFA28BB00234FF4005442
:101108004FF0007218481B930FA9CDE90F33CDE9B2
:101118001133CDE91334CDE91533CDE91732CDE9D3
:10112800193307F0D3FB38B90F48FFF73DFF1CB060
:1011380010BDFFF779F9B3E7FFF776F90A48FFF72B
:1011480033FF1CB010BDFFF76FF9D6E7FFF76CF956
:10115800C0E7FFF769F9B1E7FFF766F9A9E700BF4C
:10116800000000000000000058080020002C01408A
:1011780000B52F4A91B00023CDE90433CDE90633F9
:10118800CDE90133CDE90833CDE90A33CDE90C3394
:10119800C2E9013303930E93136193614FF08043C7
:1011A80013601046D423D36006F012FB30BB4FF413
:1011B80080531F48049304A907F038F878BB1C48EB
:1011C80006F07CFC40BB00231948019301A9039356
:1011D80007F022FBE8B99FED147B002314480A931B
:1011E800082208A98DED087B0C9307F0BFF940B9D8
:1011F8000F48FFF7D9FE11B05DF804FBFFF714F9AB
:10120800D5E7FFF711F90A48FFF7CEFE11B05DF8F0
:1012180004FBFFF709F9DEE7FFF706F9D3E7FFF765
:1012280003F9CCE7AFF30080600000000000000085
:101238008C070020FEE700BFFEE700BFFEE700BF07
:10124800FEE700BFFEE700BF704700BF704700BF62
:10125800704700BF02F0FCB808B5044806F026FE47
:10126800BDE80840024803F0E7BB00BF20050020A6
:101278007C0C0020014806F019BE00BF8003002046
:10128800014806F013BE00BF8003002000B5104BD4
:101298001A6E42F0010283B01A661A6E02F0010259
:1012A8000092009A9A6D42F080529A659B6D03F005
:1012B800805301932020019B02F0EEF802F000F920
:1012C800002002F0F3F803B05DF804EB03F04CB92A
:1012D80000100240224B02689A4200D0704730B595
:1012E80003F5284383B01A6E1E4D1F4942F08062F1
:1012F8001A661B6E296003F0806301936421102332
:10130800C5E9011300228023C5E903234FF40071C6
:101318004FF40063C5E905130446202201984FF4F1
:1013280000532846C5E9072302F0BEFFA8B90022EA
:101338001146C4F8F4504320AC6203F02FF943205F
:1013480003F068F900221146492003F027F94920E3
:1013580003B0BDE8304003F05DB9FFF765F8E6E794
:1013680000680140280900201C00024030B51E4BCF
:10137800026889B000249A42CDE90244CDE90444C8
:10138800069401D009B030BD03F528430325DA6C73
:10139800164842F00402DA64DA6C02F004020092A1
:1013A800009ADA6C42F00102DA64DB6C03F00103A4
:1013B80001934FF4407202A90223CDE90223CDE93B
:1013C8000555019B02F0A6FD4FF470620223CDE99A
:1013D800022302A90D234FF09040CDE9044506935E
:1013E80002F098FD09B030BD0068014000080048CF
:1013F80030B50024CDB06022214634A8C04D1494E5
:10140800CDE90444CDE90044CDE91544CDE91744BC
:10141800CDE90D44CDE911440C94069410940F9431
:101428001394FEF741FF242221462BA8CDE91A4444
:10143800CDE91C44CDE91E44CDE90844CDE9024478
:1014480020940A94FEF730FF2022214622A8FEF7B6
:101458002BFFAC4B2B602846C5E9014404F082F908
:10146800002840F08183A6480C2104F06BFA00287C
:1014780040F08383A2480A2104F09CFA002840F037
:1014880085839F48002104F02BFC002840F08783C7
:101498009FED957B00239A48169314AA01218DEDA0
:1014A800147B189304F0E8FA002840F068840323BA
:1014B8009348149314AA022104F0DEFA002840F09D
:1014C8005A8403218E48149114AA04F0D5FA0028EE
:1014D80040F04D8403238A48149314AA042104F08D
:1014E800CBFA002840F03F8403238548149314AABC
:1014F800052104F0C1FA002840F031849FED7C7B7F
:1015080000237F48179314AA06218DED147B04F05D
:10151800B3FA002840F01F8402237948149314AAD0
:10152800082104F0A9FA002840F011847448002129
:1015380004F0E0FC002840F0068402231822CDE9DC
:101548000C330023CDE90E236D480CAA012104F0C9
:10155800EBFB002840F0F4839FED677B002368488D
:10156800069304AA01218DED047B04F071FD002887
:1015780040F0E383624804AA012104F069FD0028D1
:1015880040F0D8835E4804AA012104F0D5FC002865
:1015980040F0CD835A4804AA012104F0CDFC00286C
:1015A80040F0C28301221146554804F0EDFD54482D
:1015B80004AA022104F04CFD002840F0B2835048F0
:1015C80004AA022104F044FD002840F0A7834C48F7
:1015D80004AA022104F0B0FC002840F09C8348488B
:1015E80004AA022104F0A8FC002840F09183444892
:1015F8000CAA022104F098FB002840F07F834048A1
:101608000122022104F0C0FD3D4804AA042104F08F
:101618001FFD002840F06F83394804AA042104F014
:1016280017FD002840F06483354804AA042104F01B
:1016380083FC002840F05983314804AA042104F0AF
:101648007BFC002840F04E8330232D480E930DEB91
:101658000302042104F068FB002840F04083284876
:101668000122042104F090FD254804AA082104F071
:10167800EFFC002840F03083214804AA082104F038
:10168800E7FC002840F025831D4804AA082104F03F
:1016980053FC002840F01A83194804AA082104F0D2
:1016A8004BFC002840F00F83182315480E930CAA12
:1016B800082104F039FB002840F002831048012279
:1016C800082104F061FD0E4804AA102104F0C0FCB2
:1016D800002840F0F2820A4804AA102104F0B8FC5D
:1016E80012E000BFAFF3008003000000000000001C
:1016F80001000000040000000000000000000000DD
:101708008809002000680140002840F0D382C048C2
:1017180004AA102104F010FC002840F0C882BC483C
:1017280004AA102104F008FC002840F0BD824823D8
:10173800B7480E930CAA102104F0F6FA002840F0DE
:10174800B082B3480122102104F01EFD9FEDAA7B50
:10175800AF4801216A468DED007B04F04FFD00285B
:1017680040F09C82AA480022012104F06FFE002864
:1017780040F09182A6480022012104F067FE00286B
:1017880040F086820423A24801936A46022104F0AD
:1017980035FD002840F079829D480022022104F09E
:1017A80055FE002840F06E8299480022022104F07C
:1017B8004DFE002840F0638203234FF4AA4CCDE984
:1017C80010C34FF0000E0823914810AA0621CDE956
:1017D80012E304F01BF9002840F04E8200239FED2D
:1017E800887BCDE93533CDE93933CDE93B33CDE9D4
:1017F8003D3337933F934B934023349384480123DD
:1018080034AA06218DED407B389304F0BBFE0028F6
:1018180040F02F8241F2E81308937D4808AB01227B
:10182800062105F0CFF9002840F020824FF42A5312
:101838000893774808AB0222062105F0C3F900286F
:1018480040F0118242F678730893714808AB04227D
:10185800062105F0B7F9002840F0028200216C4803
:10186800119110AA04F0D2F8002840F0F6819FEDFB
:10187800647B00210123664820931AAACDE91A1136
:10188800CDE91C118DED1E7B04F0F4FF002840F01B
:10189800E1819FED5B7B4FF000638DED347B3E93E0
:1018A8009FED597B4FF0005341931F230021439331
:1018B800574842914FF4807334AA8DED487B449188
:1018C80046914A91459304F05DFE002840F0BF819F
:1018D80000233E934E48402334AA0121499304F043
:1018E80051FE002840F0B0812B68494803F5277362
:1018F8003793002343934693464B36934FF0005358
:1019080035934FF0006304213E9334AA1023389195
:10191800499304F037FE002840F0938100213C48A9
:10192800089108AB012205F04DF9002840F08681A6
:1019380000214FF48864002535480A9108AB02223B
:10194800CDE9084505F03EF9002840F0748144F6D9
:10195800382308932E4808AB0422002105F032F9F9
:10196800002840F065814FF408630893284808ABC5
:101978000822002105F026F9002840F05681244865
:1019880008AB0822012105F01DF9002840F04A8122
:10199800082400251E4802AB06220021CDE9024595
:1019A80004F0E2FF002840F03A81194802AB08220F
:1019B800012104F0D9FF002840F02E8100212823BE
:1019C80013482B912BAACDE92D11CDE931112F9177
:1019D80033912C93309305F0A7F8002840F0198133
:1019E8000B482BAA012105F09FF8002840F00E8132
:1019F80007482BAA04210FE00000000001000000A6
:101A080000000000000000000000000110000000BD
:101A180088090020F40A002005F086F8002840F024
:101A2800F280B8480823CDE9230320230021279317
:101A3800B548229122AB0122CDE92511CDE9281123
:101A480005F080F9002840F0DB80B04B2393AE48C6
:101A580022AB0422012105F075F9002840F0CD8061
:101A68002023239300232793A74822AB4FF48072A7
:101A7800042105F067F9002840F0BC8020230021EC
:101A88002793A14822AB0222CDE9231105F05AF988
:101A9800002840F0AC809C4822AB0822012105F0C8
:101AA80051F9002840F0A08000222792964822ABE6
:101AB8004FF40072042105F045F9002840F09180A8
:101AC800914810AA012103F0A1FF002840F0868068
:101AD8008D481AAA012104F0CDFE00287BD10023ED
:101AE80001220893884808AB114605F06BF80028D6
:101AF8006ED14FF488620892834808AB0222012114
:101B080005F060F8002860D14FF4FA5208927E4838
:101B180008AB0422012105F055F8002852D17A4873
:101B280010AA042103F072FF002848D10023764848
:101B380020931AAA042104F09DFE00283CD100211C
:101B48000891714808AB0122042105F03BF880BBDD
:101B580004226D4808AB114605F034F810BB6A48FA
:101B6800FFF704FC4DB030BDFEF75EFC66480C2163
:101B780003F0E8FE00283FF47DACFEF755FC624810
:101B88000A2103F017FF00283FF47BACFEF74CFC5A
:101B98005D48002104F0A4F800283FF479ACFEF772
:101BA80043FC75E4FEF740FC5748FFF7DFFB4DB0F8
:101BB80030BDFEF739FCCBE7FEF736FCBFE7FEF792
:101BC80033FCB3E7FEF730FCA9E7FEF72DFC9BE7F3
:101BD800FEF72AFC8DE7FEF727FC80E7FEF724FCDA
:101BE80076E7FEF721FC6BE7FEF71EFC5CE7FEF7E5
:101BF8001BFC50E7FEF718FC40E7FEF715FC2FE743
:101C0800FEF712FC21E7FEF70FFC0AE7FEF70CFCD3
:101C1800EEE6FEF709FCE3E6FEF706FCCEE6FEF785
:101C280003FCC2E6FEF700FCB2E6FEF7FDFBA6E603
:101C3800FEF7FAFB97E6FEF7F7FB88E6FEF7F4FBFC
:101C480076E6FEF7F1FB69E6FEF7EEFB4CE6FEF7FB
:101C5800EBFB3DE6FEF7E8FB1BE6FEF7E5FB06E6D9
:101C6800FEF7E2FBFAE5FEF7DFFBEBE5FEF7DCFB50
:101C7800DCE5FEF7D9FBCDE5FEF7D6FBAEE5FEF7D2
:101C8800D3FB99E5FEF7D0FB8EE5FEF7CDFB83E5A8
:101C9800FEF7CAFB76E5FEF7C7FB6BE5FEF7C4FB6C
:101CA80060E5FEF7C1FB4CE5FEF7BEFB3FE5FEF73E
:101CB800BBFB34E5FEF7B8FB29E5FEF7B5FB0AE503
:101CC800FEF7B2FBFAE4FEF7AFFBEDE4FEF7ACFB80
:101CD800E2E4FEF7A9FBD7E4FEF7A6FBCCE4FEF7A7
:101CE800A3FBBCE4FEF7A0FBAEE4FEF79DFBA3E478
:101CF800FEF79AFB98E4FEF797FB8DE4FEF794FB5A
:101D08007DE400BF200000048809002020000010A6
:101D1800FEF78AFB6BE4FEF787FB60E4FEF784FBC3
:101D280055E4FEF781FB4AE4FEF77EFB3AE4FEF752
:101D38007BFB2FE4FEF778FB24E4FEF775FB19E440
:101D4800FEF772FB08E4FEF76FFBFFF7F6BBFEF742
:101D58006BFBFFF7EBBBFEF767FBFFF7DDBBFEF79F
:101D680063FBFFF7CBBBFEF75FFBFFF7BDBBFEF7DF
:101D78005BFBFFF7AFBBFEF757FBFFF7A2BBFEF716
:101D880053FBFFF794BB00BF0F4B9A6C42F0040261
:101D980084B09A649A6C02F004020192019A9A6CD7
:101DA80042F002029A649A6C02F002020292029ACB
:101DB8009A6C42F001029A649B6C03F0010303934E
:101DC800039B04B0704700BF0010024009480A494D
:101DD80010B500235022C0E90013C0E90333C0E95D
:101DE8000533826002F03EFC00B910BDBDE810402A
:101DF800FEF71ABB580B00200402014009480A49A3
:101E080010B500235022C0E90013C0E90333C0E92C
:101E18000533826002F026FC00B910BDBDE8104011
:101E2800FEF702BB300B0020080201400A480B49AC
:101E380010B500234FF44002C0E90013C0E9033392
:101E4800C0E90533826002F00DFC00B910BDBDE8A1
:101E58001040FEF7E9BA00BF080B00201402014049
:101E680010B50368424A8CB000249342CDE9064479
:101E7800CDE908440A9407D03E4A93422FD03E4AFF
:101E880093424AD00CB010BD3C4BDA6C42F00102D0
:101E9800DA64DA6C02F001020092009ADA6C42F01D
:101EA8000202DA64DB6C03F002030193802203234D
:101EB8004FF0904006A9CDE90623019B02F02AF8CD
:101EC8004FF400700222CDE9060208232C480A9339
:101ED80006A9CDE9084402F01DF80CB010BD274B47
:101EE800DA6C42F00102DA64DA6C02F00102029262
:101EF800029ADA6C42F00202DA64DB6C03F0020345
:101F08000393012203234FF0904006A9CDE906234D
:101F1800039B01F0FFFF8020D4E7184B1848DA6CC8
:101F280042F00202DA64DA6C02F002020492049AC5
:101F3800DA6C42F00402DA64DB6C03F00403059304
:101F48004FF4006206A90323CDE90623059B01F09F
:101F5800E1FF02224020CDE90602072309480A933F
:101F680006A9CDE9084401F0D5FF0CB010BD00BFAB
:101F7800040201400802014014020140001002401E
:101F8800000400480008004810B50A480A4C00231D
:101F9800C4E90003602104222046A1602261237560
:101FA800A361E36205F0EEF900B910BDBDE8104089
:101FB800FEF73ABA00030140400C002010B50B4868
:101FC8000B4C80220023C4E900026021082220462D
:101FD800A16022612375A361E36205F0D3F900B91A
:101FE80010BDBDE81040FEF71FBA00BF0403014052
:101FF800000C002010B50B480B4C80220023C4E9CC
:102008000002602108222046A16022612375A36195
:10201800E36205F0B7F900B910BDBDE81040FEF75E
:1020280003BA00BF08030140C00B002009480A4951
:1020380010B500236022C0E90013826003610375B4
:102048008361C36205F09EF900B910BDBDE8104078
:10205800FEF7EAB9800B00200C030140D0B50368F5
:10206800444A8CB000249342CDE90644CDE90844A3
:102078000A941ED0404A934230D0404A934254D0EA
:102088003F4A934201D00CB0D0BD3E4B3E48DA6C7B
:1020980042F00202DA64DB6C03F002034FF44056AC
:1020A8000327059306A9CDE90667059B01F032FFD2
:1020B800E9E7344BDA6C42F00102DA64DB6C03F0D6
:1020C800010300930C26032706A94FF09040CDE9A1
:1020D8000667009B01F01EFF0CB0D0BD294BDA6CDF
:1020E80042F00102DA64DA6C02F001020192019A0C
:1020F800DA6C42F00202DA64DB6C03F0020302934A
:10210800402206A903234FF09040CDE90623029B05
:1021180001F000FF012203231B48089406A9CDE91A
:10212800062301F0F7FE0CB0D0BD164BDA6C42F076
:102138000102DA64DA6C02F001020392039ADA6CA3
:1021480042F00202DA64DB6C03F002030493022615
:10215800032706A94FF09040049BCDE9066701F0DC
:10216800D9FE0948089406A9CDE9066701F0D2FE10
:102178000CB0D0BD00030140040301400803014036
:102188000C030140001002400004004800B58FB065
:102198003022002102A8FEF787F82848284B036060
:1021A80002F0E6FB002838D100224FF40040042159
:1021B8002A23CDE90721029002A92048ADF80C2076
:1021C800CDE904230693099202F068FC98BB4FF40A
:1021D800FA7300220093194840F6FC03114602F0F6
:1021E80049FD28BB262340F2011C1448ADF80CC059
:1021F800102202A9CDE9053302F050FCA8B9142336
:1022080000930E4840F6FC034FF48052102102F070
:1022180031FD28B90FB05DF804FBFEF705F9C3E7F7
:10222800FEF702F90FB05DF804FBFEF7FDF8E6E7EC
:10223800FEF7FAF8D6E7FEF7F7F8C8E77C0C0020B7
:102248000008005010B51B4B026888B000249A4261
:10225800CDE90244CDE90444069401D008B010BD8C
:1022680003F1704303F5023302A9DA6C42F48032B9
:10227800DA64DA6C02F480320092009ADA6C42F086
:102288000102DA64DB6C03F00103019330220323BB
:102298004FF09040CDE90223019B01F03BFE22461E
:1022A8000221362002F07AF9362002F0B3F908B09C
:1022B80010BD00BF0008005030B583B00023019363
:1022C800002863D0C56D0446002D00F0C680226842
:1022D80093689B0005D5936823F0204323F03F03C0
:1022E80093609368DD0019D4724B73481B6891683A
:1022F8009B09A0FB030321F010419B0921F03F013A
:1023080001335B0041F0805191600193019B2BB137
:10231800019B013B0193019B002BF9D19368D800E5
:1023280029D4E36D43F01003E365236E01200343D2
:102338002366936813F0040FE36D23D1D90621D4E3
:10234800E36D23F4817343F00203E3659368DB07CD
:102358002ED4B2F1A04F1CD0584B9A4219D05849EC
:10236800584B89689B680B43574989680B43D907C1
:102378001ED4564916E0936813F0040F4FF000007E
:10238800E36DDBD0E36D43F01003E365012003B098
:1023980030BD4A4B4FF0A04189689B680B43DD076D
:1023A80006D44B498B68656823F47C132B438B60F8
:1023B800E568E36B94F824102B43A5682B43657FED
:1023C800012943EA453343EA01434CD0E16A21B18C
:1023D800256B01F4787129430B43D5683D492940A1
:1023E8001943D1601369616B23F040630B43136198
:1023F80093681B0722D4D16894F83830257F21F4DC
:1024080080415B0021F0020143EA85330B432169D7
:10241800D3601369002933D043F480331361D2F8B1
:10242800C0306FF30D030B43C2F8C03094F840304E
:10243800012B2FD0136923F0010313616369012B6A
:1024480016D0136B23F00F031363E36D23F003031C
:1024580043F00103E36503B030BDFEF709FA2566D2
:1024680084F8585033E7A16A013943EA4143ADE79C
:10247800116B236A21F00F01013B0B431363E4E75F
:1024880023F480331361D2F8C0306FF30D03C2F820
:10249800C030CBE71169636CA56C6FF38A012B43DD
:1024A8000B43E16C0B43216D0B4343F001031361B4
:1024B800C4E700BF08000020632D3E05000100505E
:1024C80000040050000500500006005000070050AE
:1024D800000300500740F0FF704700BF704700BF7F
:1024E80008B5806AFFF7FAFF08BD00BF704700BF54
:1024F800836ADA6D12F0500F10B5DA6D1DD11968C4
:1025080042F40072DA650A6812F0080FCA681BD034
:1025180012F4406F0DD1CA6894040AD4DA6D22F41B
:102528008072DA65DA6DD10403D4DA6D42F0010203
:10253800DA651846FFF7D0FF10BDD2060AD45B6DE6
:10254800BDE810405B6B18479007E7D51846FFF7C2
:10255800C3FFF1E71846FFF7C9FF10BD806A08B549
:10256800C36D43F04003C365036E43F00403036681
:10257800FFF7BCFF08BD00BF2DE9F04190F85820D7
:1025880082B00346012A4FF00000019000F05F81FD
:102598001A68012083F858009468660709D5DA6D2F
:1025A80042F02002DA65002283F8582002B0BDE824
:1025B800F08148684FEA901E00F01F0C02F13004C9
:1025C80008680EF00C0EC0F3846054F80E501F26F5
:1025D80000FA0CF006FA0CFC25EA0C0C40EA0C0098
:1025E80044F80E009468086814F0040F94684ED1FB
:1025F80025074CD48D68C0F304560724C00DB44099
:10260800B5F1004F00F004006FEA040400F06C819B
:1026180002F11407B5403E5834402C433C505069F1
:1026280020F0004050610F690868D468042F0546FF
:1026380000F02E81C4F3C104650002F16004AF4EBE
:1026480054F827C000F0F8400CEA0606064348692B
:10265800A840304340F0004044F827000D698E69D7
:1026680054F8250020F08070304344F825000E69A6
:102678000D7F54F82600A5F10105B5FA85F56D0919
:1026880020F0007040EA456044F826000868946825
:10269800E40711D4CE689A4CD2F8B05006F0180767
:1026A800FC40C0F31207044025EA07052C43C2F892
:1026B800B040944CA64231D09349084201D1002041
:1026C80071E7B2F1A04F78D090498A4200F08D802E
:1026D8008F4CD1F80816A04201F0E07500F0918007
:1026E8008C4CA04200F08D808B4CA04200F0C4803E
:1026F8008A4CA042E3D14902E1D484498A42DED01F
:10270800B2F1A04F14BF864901F500718A6822F022
:10271800E0722A4342F480028A60D0E7002F00F07A
:102728009A8090FAA0F4002C00F03981B4FA84F46D
:10273800013404F01F04092C40F2318190FAA0F40E
:10274800002C00F09A81B4FA84F40134A40604F051
:10275800F84490FAA0F5002D00F08D81B5FA85F5C2
:10276800013505F01F05012606FA05F52C4390FAF8
:10277800A0F0002800F07D81B0FA80F0013000F070
:102788001F0000EB40001E38000540F000700443B5
:10279800E50D886805F0040502F11406C4F3045435
:1027A80000FA04F74FF0070C70590CFA04F420EA09
:1027B80004003843705108687EE75A4C544EA168AB
:1027C800B04201F0E07560D0524EB0425DD0524E3A
:1027D800B0428DD1CE013FF572AFA26822F0E0720F
:1027E8002A4342F08072A26069E7494C4D49A042F1
:1027F80089683FF464AF474CA04201F0E0757FF46C
:1028080073AF09023FF55BAF47498A427FF457AF80
:10281800434C464A46481268A1689209A0FB020246
:10282800920921F0E0710132294302EB4202920041
:1028380041F40001A1600192019A002A3FF43FAFE0
:10284800019A013A0192019A002AF9D137E7022048
:1028580002B0BDE8F081800E013000F01F050124B0
:10286800800600F0F840AC40092D44EA000405EB6E
:10287800450088D800058AE7C8013FF520AF2349FD
:102888008A4214BF264C274CA7E70F02C1D516E78A
:10289800146E146EC0F31206C4F38464002E49D17A
:1028A800C0F38460844200F0B980546E566E02F121
:1028B8006004C6F3846602F1640E864200F09280DA
:1028C800A668A66804F1080CC6F38466864200F080
:1028D800BA80E668E66804F10C07C6F38464A0428F
:1028E80000F096802846D2E602F1140635582C40AE
:1028F8003450506940F00040506194E600F0FF0306
:10290800FFFF070000007F40000008800001005022
:10291800000021C31000C090000052C7000084CB03
:102928000007005000030050000600500800002077
:10293800632D3E0590FAA0F61EB1B6FA86F6B442AB
:102948006CD0546E566E02F16004C6F3846602F1D0
:10295800640E95FAA5F704F1080CE0461FB1B7FA22
:1029680087F7B74240D0A668A668C6F3846695FA8A
:10297800A5FE04F10C07B846BEF1000F03D0BEFA5D
:102988008EFEB64561D0E668E468C4F3846495FABF
:10299800A5F6002E3FF47BAEB6FA86F09FE790FAD4
:1029A800A0F4002C71D0B4FA84F40134A40604F025
:1029B800F84490FAA0F5002D65D0B5FA85F50135F3
:1029C80005F01F05012606FA05F52C4390FAA0F03C
:1029D800002855D0B0FA80F0013000F01F0000EB5D
:1029E800400047E704F10808DEF8000020F0004046
:1029F800CEF800000D68A068A668C5F31207C446A3
:102A0800C6F384662846002FB1D1C5F384605DE71C
:102A1800386820F000403860086838E6106E1446C0
:102A280020F0004044F8600F0D68506E566EC5F3F4
:102A3800120702F1640EC6F384662846002F88D177
:102A4800C5F3846039E704F10C08DCF8000020F0D5
:102A58000040CCF800000D68E068E468C5F3120691
:102A68004746C4F384642846002E90D1C5F3846099
:102A780035E707488BE6022578E64FF0806468E67C
:102A88004FF4401083E602259FE74FF0806490E7FB
:102A9800000050FE30B590F858304C68012B00F01B
:102AA800B7800368012280F85820844698680A682D
:102AB80010F0040F986832D0B44882425DD0D868CC
:102AC8000C6900F01800182866D0D8684969C0F366
:102AD800C100C0F10200400000F01E0024FA00FE10
:102AE800D86800F0180018285ED0D868C0F3C10074
:102AF800C0F10200400000F01E00C140920C02F03C
:102B08000C02203341EA0E41985800F0F0204FF0B3
:102B1800000E014399508CF858E0704630BD00070C
:102B2800CAD49A48824241D0B4F1A07F00F0D48040
:102B380070D8B4F5400F00F0CF80B4F1807F02D098
:102B4800B4F5000F6CD142F30000C2F3015400F059
:102B58002400044403F10C0022F0024522F07E4ECA
:102B680050F8242025F460152EF4F00E22EA050210
:102B780042EA0E0240F8242065E0D8680C694969E9
:102B8800C0F3C10ED868C0F3C1004FEA4E0E400032
:102B980004FA0EFE8140B1E7D868496900F01800D0
:102BA80018284FEA840EA0D18900A7E7B4F1A07FC6
:102BB80000F0B5805ED8B4F5400F00F0CD80B4F1D8
:102BC800807F00F0C080B4F5000F40F0B580DA686F
:102BD80022F0FB4222F4800242F40002DA601A6A10
:102BE800886922F4E04202431A62DCF85C20802003
:102BF80022F48032CCF85C2018600A7B5868012ADD
:102C08000CBF40F0800020F080000A68586053E74D
:102C1800022030BDB4F1C07F95D0B4F1E07F5BD025
:102C280042F30004C2F3015004F02404204403F1E9
:102C38000C0522F0024455F8202024F4601422EAFE
:102C4800040245F820200A685148824231D0DCF855
:102C58005C0020F48020CCF85C004FF40070186011
:102C6800087B012858680CBF40F4007020F40070FD
:102C7800586021E7B4F1C07F48D0B4F1E07F5BD160
:102C8800D8688A6820F0FB4002F0F84220F48000FF
:102C9800024342F0E072DA60A1E7002D69D1C0F387
:102CA8008460012202FA00F0D3F8A0200243C3F89E
:102CB800A020DCF85C204FF4807022F40032CCF8BD
:102CC8005C2018600A7B012A5A680CBF024322F470
:102CD80080725A602E4AF2E62D4C8868A242C0F3F0
:102CE8001205DAD04DB9C0F3846001248440D3F8CA
:102CF800A4002043C3F8A400A9E790FAA0F0002894
:102D080040D0B0FA80F001248440F0E7DA6822F07D
:102D1800FB4222F4800242F0C072DA605FE7D868B2
:102D28008A6820F0FB4002F0F84220F48000024359
:102D380042F0A072DA6052E7DA6822F0FB4222F42D
:102D48008002DA604BE7DA6822F0FB4222F4800264
:102D580042F08072DA6042E7D8688A6820F0FB4067
:102D680002F0F84220F48000024342F44002DA60A4
:102D780035E790FAA0F038B1B0FA80F0012202FAF3
:102D880000F091E70124B2E701208DE70000C07D43
:102D9800FFFF170070B582B00022036801929A689D
:102DA800D20746D499682B4A1142054644D19A68FD
:102DB80022F0004222F03F0242F00102B3F1A04F9C
:102DC8009A6044D0244A934241D0244B9B681E0207
:102DD80013D5234B234A1B689B09A2FB03239B099A
:102DE800013303EB43039B000193019B2BB1019B30
:102DF800013B0193019B002BF9D100F035FB2B68B7
:102E08001A68D407064614D4174C9A68D00704D415
:102E18009A68224042F001029A6000F025FB821B6A
:102E2800022A2B6802D91A68D10705D51A68D20771
:102E3800EBD5002002B070BDEB6D43F01003EB65DD
:102E48002B6E012043F001032B6602B070BD074BC7
:102E5800BCE700BF3F0000800001005000070050A1
:102E680008000020632D3E05C0FFFF7F00030050CF
:102E78000368B3F1A04F70B504460CD03B4A9342A7
:102E880009D0D2F808669D6815F0040502F5C062FD
:102E980007D0022070BD364A96689D6815F0040573
:102EA800F7D194F85830012BF3D0012384F8583027
:102EB8002046FFF76FFF002839D1E36D226823F41D
:102EC800706323F0010343F48073E365274B9A4250
:102ED80006F01F0640D003F580639A4241D01146A0
:102EE800E36D23F48013E365E36D13F480531CBF93
:102EF800236E23F0060323661C2313608A424FF0D7
:102F0800000384F8583015D040F22123F340DD0740
:102F180010D4E36D43F48013E365CB689B01B9D506
:102F2800E36D23F4405343F48053E36570BD84F8A4
:102F3800585070BDD368990105D5E36D23F440530B
:102F480043F48053E365936823F0004323F03F0381
:102F580043F00403936070BD4FF0A041002EC3D12D
:102F6800BEE70449002EBFD1BAE700BF00010050F8
:102F78000003005000040050F8B504460068B0F1A2
:102F8800A04F0F46164609D0374B984206D0374D0A
:102F9800AB6885686A0706D50220F8BD344DAB6872
:102FA80085686A07F8D494F85820012AF4D003F009
:102FB8001F05304B0122984284F8582008D040F26F
:102FC8002120E840104003D184F858000120F8BDC2
:102FD8002046FFF7DFFE00283ED1E36D216823F489
:102FE800706323F0010343F48073E3651E4B994239
:102FF80036D003F58063994232D0E36D23F4801311
:10300800E365E36D606D1C4D13F480531CBF236EA4
:1030180023F006032366C562184D0563184D456302
:103028001C250D60002584F858504D6845F01005A2
:103038004D60CD6845F0010533463A46CD604031D4
:1030480001F0C8F92268936823F0004323F03F0396
:1030580043F004039360F8BD002384F85830B5E7C3
:10306800002DCED1C9E700BF000100500007005075
:103078000003005000060050F9240008E924000865
:103088006525000838B503689A68950702D59B68D6
:10309800002038BD9A68D407FAD59A6802F00D0264
:1030A800012A044609D0E36D43F01003E365236E5B
:1030B80043F001032366012038BD9A6822F00042DC
:1030C80022F03F02032142F002029A60196000F0E8
:1030D800CBF923689B68D907054603D4D8E79B68D2
:1030E800DB07D5D500F0C0F9401B02282368F6D9C4
:1030F8009A68D207F3D5D6E730B590F8583083B040
:103108000022012B01923FD0012380F85830044659
:103118000D46FFF7B7FFE36DE8B923F4885323F0B2
:103128000203226843F00203E365936823F04043F7
:1031380005F0804123F03F030B4343F000439360C5
:1031480093681349002B0EDBE36D23F0030343F070
:103158000103E36502E043F01003E365002384F80C
:10316800583003B030BD019B01330193019B8B4262
:10317800E6D9E36D23F01203002243F01003E36560
:1031880084F858200120ECE7022003B030BD00BFCE
:1031980001DE04002DE9F0410668B56815F0040564
:1031A8009CB01AD190F85830012B044615D0012054
:1031B800B6F1A04F189588461746199584F8580017
:1031C8000FD02B4B9E4218D0E36D84F8585043F033
:1031D8002003E3651CB0BDE8F08102201CB0BDE807
:1031E800F081244B01932046FFF7D4FD38B100232A
:1031F80084F858301CB0BDE8F0811F4BF2E701A8F5
:10320800FFF7C8FD03460028F1D1E26D606D25681F
:1032180022F4706222F0010242F48072E2652366B1
:10322800164BC362164B0363B5F1A04F154B4363AE
:103238001BD0104B9D4218D013491C262E60002627
:1032480084F858606E6846F010063B4642460C31DA
:103258006E6001F0BFF82268936823F0004323F002
:103268003F0343F004039360B8E70849E5E700BF6C
:10327800000400500001005000050050F924000827
:10328800E9240008652500080007005000030050E5
:1032980090F85820012A4CD070B402689DB00346BB
:1032A80000240120B2F1A04F189483F85800199413
:1032B8000BD0464DAA423AD0DA6D83F8584042F016
:1032C8002002DA651DB070BC70474148806840072D
:1032D8000BD59268DA6D42F020020120DA650022EF
:1032E80083F858201DB070BC704790684007F1D42F
:1032F800B2F1A04F08681ED0002831D13549334CAF
:103308008A68354822F460428A60A4688268D607D1
:1033180058D4324A9268D00707D4E20705D48A689D
:1033280022F4716222F00F028A600020D7E72A484F
:10333800CCE702207047002834D0294D4E68AC688D
:1033480093F838C024F46044344344EA4C34AC6005
:103358009268D40733D41E4A9268D40718D5E4E794
:103368001C4D4C68AA6822F46042224393F8384006
:1033780042EA4432AA60154A946802F5807292685B
:10338800D6071FD4154A9268D207CED4E607CCD404
:10339800AC688A6824F47161024321F00F010A4382
:1033A800AA60C2E70E49886820F460408860926885
:1033B800D50704D4064A9268D407B6D4AFE7044ABE
:1033C8009268B2E7054A9268AFE700BF0004005070
:1033D8000001005000070050000500500006005092
:1033E8000003005038B50F4B1B680BB9012038BDDE
:1033F8000D494FF47A720546B2FBF3F30868B0FB47
:10340800F3F001F015F904460028EFD10F2DEDD89F
:10341800024629464FF0FF3001F0C0F8034B204622
:103428001D6038BD000000200800002004000020B6
:1034380010B5032001F0A0F80F20FFF7D3FF10B15B
:103448000124204610BD0446FDF720FF204610BD8C
:10345800034A0449136809680B441360704700BFA6
:10346800900C002000000020014B1868704700BF36
:10347800900C002038B50446FFF7F6FF631C05469C
:1034880002D0044B1B681C44FFF7EEFF401BA04210
:10349800FAD338BD00000020034A136B23F0300331
:1034A80003431363704700BF00000140034A136BD6
:1034B80023F0020303431363704700BF0000014079
:1034C80038B50A4C236B43F001032363FFF7CCFFA5
:1034D800054604E0FFF7C8FF401B0A2804D8236B01
:1034E8001B07F7D5002038BD032038BD0000014078
:1034F800002800F039822DE9F0410368D90782B02D
:1035080004462DD5A5498A68C96802F00C020C2A20
:1035180000F00281082A00F004816368B3F5803F57
:1035280000F02981B3F5A02F00F092819B4D2A6805
:1035380022F480322A602A6822F480222A60002B32
:1035480040F01E81FFF790FF064605E0FFF78CFF6D
:10355800801B642800F239812B689903F6D423680C
:103568009A0728D58D4A9368D26803F00C030C2B70
:1035780000F0E280042B00F0E480E368874D002B24
:1035880000F014812B6843F480732B60FFF76CFF05
:10359800064605E0FFF768FF801B022800F2158148
:1035A8002B685F05F6D56B68226923F0FE4343EA72
:1035B80002636B6023681A0719D56369774D002B7E
:1035C80000F09680D5F8943043F00103C5F89430A4
:1035D800FFF74AFF064605E0FFF746FF801B022873
:1035E80000F2F380D5F894309B07F5D523685D0782
:1035F80041D56A4B9A6DD00000F1EB809A6D42F08C
:1036080080529A659B6D03F080530193019B0125BD
:10361800634E3368D90540F10A81A368012B00F095
:10362800DA80052B00F05E815C4ED6F8902022F0FF
:103638000102C6F89020D6F8902022F00402C6F8BD
:103648009020002B40F0CE80FFF70EFF41F2883823
:10365800074605E0FFF708FFC01B404500F2B580AC
:10366800D6F890309907F5D425B14C4A936D23F0DC
:103678008053936523689A0618D5A369474D002B94
:1036880000F0C180D5F8983043F00103C5F89830B0
:10369800FFF7EAFE064605E0FFF7E6FE801B022874
:1036A80000F29380D5F898309B07F5D5E369EBB124
:1036B8003A4DAA6802F00C020C2A00F02181022B74
:1036C8002B6823F080732B6000F0CF80FFF7CCFECF
:1036D800044604E0FFF7C8FE001B022875D82B68D3
:1036E8009B01F7D4EA682F4B1340EB6000206DE094
:1036F800D5F8943023F00103C5F89430FFF7B4FEF1
:10370800064604E0FFF7B0FE801B02285DD8D5F816
:1037180094309F07F6D469E701F0030103297FF489
:10372800FCAE1E4A126892037FF51AAF6268002A3F
:103738007FF416AF012049E002F00302022A7FF469
:103748001CAF164B1B685B0502D5E368002BF1D054
:10375800124A20695368144923F0FE4343EA006380
:1037680053600868FFF73EFE0028E3D123681A0774
:103778007FF53DAF21E7094A136843F480331360AE
:10378800FFF772FE054E054604E0FFF76DFE401B8D
:1037980064281AD833689F03F7D5E0E60010024082
:1037A80000700040FCFFEEFE040000202B6823F4AC
:1037B80080732B60FFF758FE06462B685905D5D550
:1037C800FFF752FE801B0228F7D9032002B0BDE89C
:1037D800F08100251CE7654AD2F8903043F00103D8
:1037E800C2F89030FFF740FE604F064641F2883835
:1037F80004E0FFF739FE801B4045E6D8D7F8903043
:103808009B07F6D530E7D5F8983023F00103C5F8C3
:103818009830FFF729FE064604E0FFF725FE801BD7
:103828000228D2D8D5F898309F07F6D43EE73368F7
:1038380043F480733360FFF717FE07463368DA05F1
:103848003FF5EBAEFFF710FEC01B0228F6D9BCE728
:1038580003F18043A3F53C331A6842F480221A60CE
:103868001A6842F480321A608AE7FFF7FDFD0646BF
:1038780004E0FFF7F9FD801B0228A6D82B68990100
:10388800F7D4E9683A4B226A606A0B401343D4E9DB
:103898000A1243EA012343EAC263D4E90C1201384D
:1038A800490843EA00130139520843EA4153013AEF
:1038B80043EA4263EB602B6843F080732B60EB684C
:1038C80043F08073EB60FFF7CFFD284D044605E019
:1038D800FFF7CAFD001B02283FF677AF2B689A0155
:1038E800F6D503E7214BD3F8902042F00402C3F841
:1038F8009020D3F8902042F00102C3F8902071E79D
:10390800012B3FF417AFEB68226A03F003019142E1
:103918007FF410AF616A03F0F0020139B2EB011FC6
:103928007FF408AFA16A03F4FE42B2EB012F7FF4E3
:1039380001AFE16A03F07842B2EBC16F7FF4FAAEEF
:10394800226B520803F4C001013AB1EB425F7FF4E5
:10395800F1AE626B520803F0C063013AB3EB426FF9
:1039680014BF0120002031E70120704700100240F9
:103978000C809F01184B9A6802F00C02042A26D08A
:103988009A6802F00C02082A23D09A6802F00C0206
:103998000C2A01D000207047D968DA68D86801F08D
:1039A80003010329C2F30312C0F306200CBF0B4B1B
:1039B8000B4B0132B3FBF2F303FB00F0064BDB6861
:1039C800C3F3416301335B00B0FBF3F07047044875
:1039D80070470248704700BF0010024000127A008A
:1039E8000024F400002800F0EE80784A2DE9F8431E
:1039F800136803F00F038B420D4604460CD213687C
:103A080023F00F030B431360136803F00F038B427B
:103A180002D00120BDE8F8832368DF0769D567680D
:103A2800032F00F0A0806A4B022F1B6800F09780DC
:103A38005B05EED5FFF79EFF664B984240F2C080CB
:103A4800634A936823F0F00343F0800393604FF0D8
:103A580080095F4EB36823F003033B43B360FFF76D
:103A680003FD41F28838074604E0FFF7FDFCC01B60
:103A7800404571D8B368626803F00C03B3EB820F5A
:103A8800F3D123689F0736D4B9F1000F03D0B36888
:103A980023F0F003B3604D4E336803F00F03AB42DD
:103AA80046D823685A0706D54949E0688A6822F447
:103AB800E06202438A601B0707D5454A216993687B
:103AC80023F4605343EAC1039360FFF753FF404A6E
:103AD800414C92684149C2F303120346A25C404834
:103AE80002F01F02D3400B600068BDE8F843FFF7FF
:103AF80079BC9E07CFD5580704D535498A6842F462
:103B0800E0628A60190706D5314A936823F47C532A
:103B180043F4E06393602E4AA16893682B4E23F028
:103B2800F0030B439360336803F00F03AB42B8D93B
:103B3800336823F00F032B433360FFF795FC41F202
:103B480088380746336803F00F03AB42A9D0FFF764
:103B58008BFCC01B4045F5D90320BDE8F8839A03C8
:103B68003FF568AF55E71A4A116888017FF551AFEC
:103B7800D068D168D268174E00F003000328C1F35B
:103B880003110CBF174818480131B0FBF1F1104878
:103B9800C2F3062201FB02F2C168C1F3416101319F
:103BA8004900B2FBF1F2B2420AD9826812F0F00F72
:103BB8003FF446AF990703D5A368002B3FF440AF05
:103BC8004FF0000945E70120704700BF0020024080
:103BD8000010024000B4C4048CA5000808000020AE
:103BE8000400002000127A000024F400014B186839
:103BF800704700BF080000202DE9F0410368044623
:103C080013F4002082B042D0AC4B9A6DD50040F13D
:103C18002A810027AA4D2B6843F480732B60FFF795
:103C280023FC064605E0FFF71FFC831B022B00F26E
:103C380025812B68D805F6D5A04D226DD5F8903092
:103C480013F4407316D0934214D0D5F89010D5F8D9
:103C5800903043F48033C5F89030D5F8903023F491
:103C68008033C5F8903021F44073C907C5F8903007
:103C780000F13E819149D1F8903023F44073134309
:103C8800C1F8903023680020002F40F0FC80DD0749
:103C980008D58A496568D1F8882022F003022A43AA
:103CA800C1F88820990708D58449A568D1F88820E3
:103CB80022F00C022A43C1F888205A0708D57F4908
:103CC800E568D1F8882022F030022A43C1F888201C
:103CD8001F0708D579492569D1F8882022F0C00244
:103CE8002A43C1F88820DE0608D574496569D1F8E9
:103CF800882022F440722A43C1F888209D0608D5FE
:103D08006E49A569D1F8882022F440622A43C1F897
:103D18008820590608D56949E569D1F8882022F430
:103D280040522A43C1F888201A0608D56349256AF3
:103D3800D1F8882022F440422A43C1F88820DF05C0
:103D480008D55E49656AD1F8882022F440322A43B2
:103D5800C1F888209E0308D55849A56AD1F89C2047
:103D680022F003022A43C1F89C209D0508D5534937
:103D7800E56AD1F8882022F440222A43C1F8882035
:103D880059050BD54D49256BD1F8882022F44012EE
:103D98002A43B5F5801FC1F888207AD01A050BD5BB
:103DA8004649656BD1F8882022F440022A43B5F5CC
:103DB800800FC1F8882071D0DF040BD53F49A56B6F
:103DC800D1F8882022F040722A43B5F1807FC1F8EB
:103DD800882068D09E040BD53849E56BD1F8882037
:103DE80022F040622A43B5F1006FC1F888205FD005
:103DF8005D040BD53149256CD1F8882022F040624A
:103E08002A43B5F1006FC1F888205BD019040BD59F
:103E18002A49656CD1F8882022F040522A43B5F12E
:103E2800805FC1F8882052D0DA030BD52349A56CEE
:103E3800D1F8882022F040422A43B5F1804FC1F8DA
:103E4800882049D05B030BD51C4AE16CD2F89C3022
:103E580023F440130B43B1F5001FC2F89C3040D047
:103E680002B0BDE8F0819A6D42F080529A659B6D70
:103E780003F080530193019B0127CBE623680320BD
:103E8800002F3FF404AF0D498A6D22F080528A65F5
:103E9800FDE6CA6842F48012CA607FE7CA6842F445
:103EA8008012CA6088E7CA6842F48012CA6091E743
:103EB800CA6842F48012CA609AE700BF0010024044
:103EC80000700040CA6842F48012CA609EE7CA685F
:103ED80042F48032CA60A7E7CA6842F48032CA60F6
:103EE800B0E7D36843F48013D36002B0BDE8F08133
:103EF800FFF7BAFA41F28838064604E0FFF7B4FA49
:103F0800801B4045BAD8D5F890309B07F6D5226D6E
:103F1800B0E600BF0B68002B00F0A4812DE9F04F3C
:103F2800B0F1904F85B04FF000024FF0010B00F058
:103F38001881DFF84CC300910BFA02FE1EEA030A4F
:103F480000F0848000994D6805F0030754000321B0
:103F580007F1FF3801FA04F6B8F1010F6FEA060617
:103F680040F22181032F0BD00099D0F80C8089688A
:103F780008EA060801FA04FE4EEA080EC0F80CE04A
:103F880007FA04F407683E40344315F4403F0460E0
:103F98005CD0B84E346E44F001043466346E04F0DC
:103FA80001040394039C22F0030404F1804402F00A
:103FB80003070F2104F58034BF0001FA07FEAE495C
:103FC800A668884226EA0E0600F04081AB4988427E
:103FD80000F02D81DFF8ACE2704500F03D81DFF89C
:103FE800A8E2704500F03F81DFF8A0E270450CBF01
:103FF8004FF0050E4FF0060E0EFA07F73E43A66087
:10400800DCF808406FEA0A06EF0254BF34404AEA77
:104018000404CCF80840DCF80C40A90254BF344032
:104028004AEA0404CCF80C40DCF80440AF0354BF5F
:1040380034404AEA0404CCF80440DCF80040E903C0
:1040480054BF34404AEA0404CCF80040013233FA41
:1040580002F47FF471AF05B0BDE8F08FD0F8089096
:10406800CD680AEA090905FA07F848EA0908C0F814
:104078000880D0F8048028EA0E08C6F3001E0EFA5D
:1040880002FE4EEA080EC0F804E0D0F80C808D68F5
:104098000AEA080805FA07FE4EEA080E022CC0F8DC
:1040A8000CE019D14FEAD20E0D694FEA8E0E02F0DC
:1040B80007080EF1904E4FEA880805FA08F5DEF871
:1040C800209000950F2505FA08F8009D29EA0809AF
:1040D80045EA0908CEF82080BC40076807EA0A07C5
:1040E8003C4316F4403F046036D0624F3C6E44F0C7
:1040F80001043C663C6E04F001040394039C22F026
:10410800030404F1804404F5803402F00307D4F872
:1041180008E00F25BF0005FA07F72EEA0707A76092
:10412800574CF502A4686FEA0C077DD43C40544D07
:10413800AC60EC68B50200F186803C40504DEC6004
:104148006C68B5037CD43C404D4D6C602C68F5031D
:1041580073D43C404A4D2C60013233FA02F43FF4E8
:104168007AAF0BFA02FE13EA0E0CF5D04E68570030
:10417800032505FA07F806F003046FEA080A04F1B4
:10418800FF38B8F1010F7FF669AF032CA4D0D0F83F
:104198000C808D680AEA080805FA07FE4EEA080E40
:1041A800C0F80CE098E70099D0F80890C96809EAC7
:1041B800060901FA04F848EA0908C0F80880D0F8A6
:1041C8000480009928EA0E08C5F3001E0EFA02FEC4
:1041D8004EEA080EC0F804E0D0F80C80896808EAB6
:1041E800060801FA04FE4EEA080E022FC0F80CE099
:1041F8007FF4C6AE00994FEAD208096902F0070EAB
:1042080000EB88084FEA8E0E01FA0EF1D8F82090DC
:1042180001910F2101FA0EFE019929EA0E0941EADE
:10422800090EC8F820E0ABE644EA0C047FE74FF03B
:10423800020E0EFA07F73E43E1E64CEA040489E76A
:1042480044EA0C0480E74CEA040477E74FF0010ED7
:104258000EFA07F73E43D2E64FF0030E0EFA07F7C1
:104268003E43CCE670474FF0040E0EFA07F73E4384
:10427800C5E600BF001002400004004800080048DE
:1042880000040140000C00480010004800140048D9
:1042980000690840003818BF012070470AB18161E1
:1042A80070478162704700BF002878D002683D4996
:1042B8008A42F0B403465AD93B483C493C4D104425
:1042C800A1FB00100009800002219C6883F82510DA
:1042D800D968C3E910501D69214329435D69294301
:1042E8009D692943DD692943156825F4FF4C1D6A3A
:1042F8002CF0700C294341EA0C01116029492D4D1D
:10430800DD648A42294994BF2B4E2C4ED2B2083A1A
:10431800A1FB0212C2F304120121851901FA02F26B
:10432800B4F5804F1A659D644FEA900028D05D6807
:10433800214FECB2013D032D46F82040C7F88420F8
:1043480028D81F4A1F4D22449200013CA14000205A
:10435800C3E91525D96510601B4A51640020012264
:10436800D86383F8240083F82520F0BC70471748E9
:104378000E49174D1044A1FB001000098000A3E767
:104388000021596046F8201001F1804101F5023101
:10439800C1F884200022C3E91522DA65DEE701208E
:1043A800704700BF07040240F8FBFDBFCDCCCCCC62
:1043B8000004024080080240000802402008024031
:1043C8003F8200104009024000090240F8FFFDBF8B
:1043D80000000240F0B490F82440012C09D00124D8
:1043E80080F8244090F82540012C05D0002380F85F
:1043F80024300220F0BC7047022480F825400024B5
:10440800C4630468C66C256825F001052560D0E9F9
:104418001475776015B1D0E916677760466C076C3C
:1044280006F01F0C012606FA0CF67E6063608368AE
:10443800102B036B0BBFA260A160E160E260BBB10F
:10444800236843F00E032360836C1A68D20303D5F4
:104458001A6842F480721A601DB12B6843F48073A5
:104468002B60236843F0010300202360F0BC7047F1
:10447800236823F004032360236843F00A032360BE
:10448800E2E700BF354A136860B903F4C063B3F5C7
:10449800806FD2F880301CD023F48073C2F880304B
:1044A80000207047B0F5007F06D023F4C06343F4C2
:1044B800806313600020704703F4C063B3F5806F16
:1044C800D2F880302AD043F48073C2F880300020BC
:1044D800704723F48073C2F880301368204821495C
:1044E80023F4C06343F4007313600368322000FBB5
:1044F80003F35069A1FB03139B0C400503F101036F
:1045080006D55169490503F1FF3301D5002BF8D1D0
:10451800124B5B695B05CDD50320704743F480736C
:10452800C2F8803013680E480E4923F4C06343F480
:10453800007313600368322000FB03F35069A1FB8A
:1045480003139B0C400503F10103E1D551694905AB
:1045580003F1FF33DCD5002BF8D1D9E70070004018
:104568000800002083DE1B43024A936843F480431B
:1045780093607047007000400749CA6803024FF60D
:10458800FF0003F4E0630240134343F0BF6343F4C6
:104598000033CB60704700BF00ED00E01B4BDB68C9
:1045A800C3F3022300B5C3F1070EBEF1040F03F1F4
:1045B800040C28BF4FF0040EBCF1060F1CD9A3F160
:1045C800030C4FF0FF3303FA0CF322EA03024FF017
:1045D800FF3303FA0EF321EA030303FA0CF3134340
:1045E8001B010028DBB20ADB00F1604000F56140E6
:1045F80080F800335DF804FB00229446E7E7044A9C
:1046080000F00F00024413765DF804FB00ED00E0B3
:10461800FCEC00E0002807DB044A4109012300F014
:104628001F00834042F82130704700BF00E100E0DE
:104638000138B0F1807F01D30120704710B44FF0EA
:10464800E023074C58614FF0F00C84F823C0002297
:10465800072110469A615DF8044B1961704700BF45
:1046680000ED00E030B583B000230193002863D04B
:1046780002681368002B04465EDB437F03F0FF01EA
:10468800002B00F09A80D4E901036169156803439F
:104698000B43E16810680B4321690B4394490140BF
:1046A8000B43136013681B0201D52D0247D59149AE
:1046B800A3698A4203F0030000F085808E498A428C
:1046C80000F093808D498A424FD08D498A4200F08C
:1046D800D48004318A4200F0E6808A498A4200F098
:1046E800AA80002800F0D280DD0640F1F5808649D6
:1046F8008A4240F0ED806FF0020502228348816A09
:1047080011438162990640F1A6808048C16A11432D
:10471800C1627E499D0703F001004A6340F1A08011
:104728004B6A13434B62002840F0A280D143774A7A
:10473800136A0B40136239E0012003B030BD744B9B
:1047480074491B689B09A1FB03139B09013303EB05
:1047580083039B000193019B002BA8D0019B013B85
:104768000193019B002BF9D1A1E700285ED0DD065B
:104778006FF000514FF000522CD5644DA8681043DB
:10478800A86098062CD46148C5682940C1605F4973
:1047980003F001009B074A6139D54B6813434B600E
:1047A800002846D059490B6813430B60637F0BB947
:1047B80001236377002003B030BD01770162FDF764
:1047C8004FFB22685FE7C0B1DD066FF400114FF4BC
:1047D8000012D2D44D4DA8680840A8609806D2D5DA
:1047E8004A48C1681143C160D1E7E0B1D8066FF407
:1047F80080014FF48002C0D4ECE76FF40013434A01
:1048080051681940516011680B401360CEE74B683E
:1048180023EA02034B60D1430028C3D13B4A136803
:104828000B401360C2E76FF48003E8E76FF00053B2
:10483800E5E7D143F2E7002844D0D8066FF0010538
:104848004FF001023FF55AAF3048816A2940816232
:1048580099063FF55AAF2D48C16A2940C16258E709
:104868004B6A23EA02034B62D14300283FF45FAF4F
:1048780026490B6A13430B6298E7E8B1D8066FF034
:1048880080414FF080423FF578AFA3E71E4B9A4234
:104898001BD16FF002011D4B5A6A0A405A621A6A0C
:1048A8000A401A6282E750B1D8066FF000414FF013
:1048B80000423FF562AF8DE76FF080439FE76FF0EE
:1048C80000439CE76FF00101E5E76FF0020396E70C
:1048D8006FF00201022250E70B498A4203D16FF0C0
:1048E80002050222B0E76FF00201022272E700BF60
:1048F8000F7E00FF0002014004020140080201404F
:104908000C02014014020140180201400004014059
:1049180008000020632D3E0582B00023019330B1CA
:1049280003681A68002A02DB427F012A02D00120AC
:1049380002B070471A680C4942F001021A600B680D
:104948000A4AA2FB0323DB0C03EB83030221417712
:104958000193019B2BB1019B013B0193019B002B10
:10496800F9D1002002B070470800002083DE1B4305
:1049780088B110B50379044603F0FF023BB1002368
:1049880002210122217123612271184610BD427152
:10499800FDF758FCF3E70120704700BF002841D01D
:1049A8004379012B02463FD030B4022382B0037111
:1049B8001E4B04681B681E4825689B09A0FB03035F
:1049C80001F0100C01209B0900FA0CF00133284378
:1049D80020600193019B2BB1019B013B0193019B3B
:1049E800002BF9D1236871B903F03E03022B03D1E0
:1049F800636843F001036360002001231371507161
:104A080002B030BC7047BCF1000F03F478130CBF40
:104A180002214FF400318B42EED1636843F0020368
:104A28006360E9E701207047022070470800002012
:104A3800632D3E05704700BF036870B51D685E6B47
:104A4800AA04044601D5B10417D4AA0001D5B300BD
:104A580000D470BD042323712269236842F0020246
:104A68004FF00051226159631A6822F080522046A3
:104A78001A60BDE8704000F031B904220271026981
:104A880042F0010202614FF400525A631A6822F49C
:104A980080521A60FFF7CEFFD7E700BF002800F06A
:104AA800C2802DE9F0410F46002900F0BE8043790D
:104AB800012B0546886800F0C78001236B71042824
:104AC8004FF0020316462B716FD02B6802F01006C8
:104AD800FA69012A08D1996B3A6A1F24B440B24096
:104AE80021EA04010A439A63B969DA6BD7F814E03A
:104AF800012900F09580022900F09A80BEFA8EFC08
:104B08004FEA5C1C7C793979A4F10104B4FA84F485
:104B1800A1F101016409B1FA81F14909640244EA89
:104B2800012440F20731B14022EA01083A6844EA18
:104B38000E040443022A44EA0C0428F440487AD0BC
:104B480048EA0208B44044EA0804DC631A684FF4EF
:104B58008041B14022EA01021A60D7E903121C68B9
:104B680040F6FE70B04024EA000401FA06F0204343
:104B780092011860C1F3830102F470620A43C024F1
:104B88001968B44021EA04011960196E40F60F70E3
:104B9800B04021EA0001B24000240A4301211A660C
:104BA800204629716C71BDE8F081FEF75DFC2B6829
:104BB80004465A6B56B118E0FEF756FC001B012854
:104BC8002B6802D95A6B110447D45A6B1204F3D4D8
:104BD8007A6A1A640DE0FEF747FC001B01282B686F
:104BE80002D95A6B002A38DB5A6B002AF3DB7A6A3F
:104BF8005A649A6CB96A06F0100640F2FF30B04069
:104C0800B14022EA00020A439A64DA6CF96AFF208A
:104C1800B04022EA0002B1400A43B868DA6457E7B4
:104C28004FF0000C6EE7012070470120BDE8F081CD
:104C38004FF0010C66E7FEF7D9FF0C4A2B6890424B
:104C480004D948F400487DE70220ACE7084A9042BE
:104C58007FF678AF48F4804874E72B69032243F065
:104C680008032B6103202A719DE700BF00688909AA
:104C780000B4C40468B38446407901282BD010B42A
:104C88001A4302238CF80430019B01208CF805009C
:104C980042EA0342DCF80000A9B1C36D03F46043A3
:104CA8001343C365046801F01001C0238B40002240
:104CB8002343012103608CF804108CF8052010466A
:104CC8005DF8044B7047836D03F4604313438365B9
:104CD800E8E7012070470220704700BF704700BF17
:104CE800704700BF704700BF704700BF704700BFE4
:104CF800704700BF704700BF704700BF704700BFD4
:104D0800704700BF704700BF704700BF002800F021
:104D180023812DE9F04190F85C30044603F0FF024E
:104D2800002B74D02268936923F010039361FEF777
:104D38009BFB054604E0FEF797FB401B0A285CD85E
:104D480023689A691207F6D49A6942F001029A61B7
:104D5800FEF78AFB054604E0FEF786FB401B0A289F
:104D68004BD822689369DB07F6D59369884943F0E5
:104D780002038A42936100F0E680237C012B936949
:104D88000CBF23F0400343F040039361637C012B85
:104D980093690CBF43F4804323F480439361A37C5D
:104DA800012B93690CBF23F4805343F48053936120
:104DB8009369A068E16823F440730343936193699E
:104DC80023F0A40393611369012923F010031361ED
:104DD8003DD000293FD00229936900F0D58043F0E7
:104DE800800393611369032943F01003136132D1DF
:104DF800936943F0200393612DE0236E032243F06F
:104E08000103236684F85C200120BDE8F081D0F816
:104E18009030604984F85D205F4A60486066C4E964
:104E28001A125F485F4A6049C4E91C025F4A604839
:104E3800C4E91E125F4A6049C4E920025F4AC4E916
:104E48002212002B00F08480204698476AE7936975
:104E580043F004039361D4E90613013B01391B02B3
:104E680043EA4163216A01390B436169013943EA25
:104E78000143B0F5407FD3610ED1D4E90B03A16A99
:104E8800013B01381B01013943EA00230B43616AE6
:104E9800013943EA0143D360D2F8C030E06B484996
:104EA80003438A42C2F8C03063D0464B9A4255D079
:104EB80001F57D51DFF83C81434E444FDFF838C19E
:104EC800DFF838E1103103F56053D2F88000656BE4
:104ED800236420F4F81040EA0540C2F88000D2F8B4
:104EE8008000A56BC4F844E020F0706040EA0560DB
:104EF800C2F88000581C4A1E8842A2EB0302C4E98B
:104F080012C72665C4F8548088BF002212D89208B8
:104F18000132520803EBC20200200021E3E802013B
:104F28009A42FBD100200123206684F85C30A065FA
:104F3800BDE8F08143F8042B8B42F3D243F8042BED
:104F48008B42F7D3EEE7224B6168C3F8001514E7EC
:104F5800204BC4F8903077E7012070471E49DFF8EE
:104F6800A0801E4E1E4FDFF89CC0DFF89CE01D4B52
:104F7800ABE71C49DFF894801B4E1C4FDFF890C04C
:104F8800DFF890E01A4BA0E743F02003936162E753
:104F980000640040ED4C0008F14C0008E94C0008A2
:104FA800014D0008F54C0008F94C0008054D0008B3
:104FB800094D00080D4D0008114D0008FD4C000872
:104FC80000680040006C004060A6004088A50040D2
:104FD80000600040210B0008F0AD004000AD00402B
:104FE80028AC0040A0AA0040B0A90040D8A80040C2
:104FF80050A7004078A60040B0A4004070A400402C
:1050080018AD004050AB004010AB0040C8A90040AC
:1050180000A80040C0A7004090F85C20013A012A8F
:10502800034605D9026E42F0020201201A66704753
:1050380070B48A684869D1E90354D1E900619207DC
:1050480056B942EAC56202431B6C42EA0442002098
:1050580070BC43F8212070475B6C44EA457443F800
:10506800314003EBC1031043586070BC0020704707
:1050780090F85C20012A034605D0026E42F0040233
:1050880001201A6670470068022283F85C20826952
:10509800002122F00102826108461966704700BFAC
:1050A800F0B590F85C30022B86460BD10568D5F830
:1050B800C43013F4001C0BD0036E43F40073036672
:1050C8000120F0BD036E43F0080303660120F0BD24
:1050D800D5F8C4604B680F6988680C68C6F3014648
:1050E800002B37D1074347EA8447D1E90603034336
:1050F8004869CC680343086A43EA006343EA044307
:10510800DEF8540006EBC60440F8347000EBC40027
:10511800134C4360CB68E35CA3B19378D7781B0446
:1051280043EA076317783B43577843EA07230CEBB6
:1051380000070CF1040CBB60CB68E35C9C4502F1F2
:105148000402EAD30123B340C5F8CC300020CEF8DE
:105158005830F0BD2743074347F08047C5E700BFF5
:1051680060A500082DE9F04190F85C40022C0BD1B5
:10517800402905680FD0D5F8984024076DD1036EF3
:1051880043F48073036603E0036E43F00803036689
:105198000120BDE8F081D5F890402607EFD0D5F87A
:1051A800904014F0807418BFD5F88040D5F89070FE
:1051B80018BFC4F34024C7F3012707EB0408846C25
:1051C80008EBC80604EBC604266806F0804656605D
:1051D800D4F800C0002E56D1CCF38A461660266853
:1051E80006F000569660266806F000461661A68806
:1051F800D661B4F806C00CF00F0CC2F80CC0666893
:1052080006F480165661666806F400169661E6791B
:1052180006F07F0616621F4E676816F80CE04FEA24
:10522800D77CC2F824C0BEF1000F10D0013B04F1B6
:10523800070EF4461EF8015F03F8015FD568ACF16C
:10524800060C755DACEB040C6545F2D80568402981
:105258001CD0C5F89C8000209BE7D5F8984014F036
:10526800807418BFD5F88040D5F8987018BFC4F37B
:105278000024C7F3012707EB0408C46C08EBC80631
:1052880004EBC604A0E72CF06046A7E7C5F89480B5
:10529800E1E700BF60A50008034690F85C0001380C
:1052A800012805D91A6E42F0020201201A667047D9
:1052B8001B6870B411F00705986D01F0380420D010
:1052C800C6071ED4DD6D45F00105DD650CB3840706
:1052D8001FD5D86D40F00200D8650C0604D5D3F868
:1052E800DC001043C3F8DC00C80504D5D3F8E0009F
:1052F8000243C3F8E0205A6D0A43002070BC5A6587
:10530800704704B386071ED4DE6D46F00106DE65DD
:1053180025BB11F4E07F01D04607DAD411F4F05F21
:1053280001D00507D5D411F4604F01D0C406D0D4FC
:1053380011F4403F01D08606CBD411F47C0FCCD0B9
:105348004506C6D4C9E711F4E07F0AD0460708D459
:10535800DE6D46F00106DE65002DB7D0C507B5D570
:10536800B7E711F4F05F01D00607F1D511F4604FEB
:1053780001D0C606ECD511F4403F01D08606E7D52A
:1053880011F47C0FE8D04606E2D5002D9ED0E5E763
:1053980003681A6D596D2DE9F04F02EA010B1A6D79
:1053A800596D1F6D02EA010A5A6D1D6D17405A6D3D
:1053B8001E6D15405A6DD3F85480D3F8509016409E
:1053C80019F0400F81B004460BF4E05B0AF0070ABD
:1053D80007F0380705F4710506F4602603D018F0C5
:1053E800400F40F0968019F4807F03D018F4807F36
:1053F80040F08280BBF1000F06D023685946C3F8FD
:1054080050B02046636E9847BAF1000F06D0236863
:105418005146C3F850A02046A36E98472FB1236881
:1054280039461F652046E36E984719F4007F02D07D
:1054380018F4007F58D119F0800F02D018F0800FAF
:1054480046D119F4005F02D018F4005F37D119F47F
:10545800004F02D018F4004F28D119F4804F02D021
:1054680018F4804F19D136B12268D4F88C301665FB
:1054780031462046984725B123681D65236E2B4386
:105488002366236E33B1D4F88830204601B0BDE8D6
:10549800F04F184701B0BDE8F08F23684FF4804201
:1054A8001A65236E43F080032366DCE723684FF414
:1054B80000421A652046D4F884309847CDE723681F
:1054C8004FF400521A652046D4F880309847BEE75A
:1054D8002368D3F8D410D3F8DC2080201865114055
:1054E800636F20469847ACE723684FF400721A654B
:1054F8002046236F98479EE72368D3F8D810D3F83F
:10550800E0204FF4807018651140A36F204698473B
:1055180070E740221A65C36F984764E7704700BF79
:10552800806A0368DA68D10303D5D0F830310621E0
:105538001847DA68920303D5D0F8343106211847A2
:10554800DA68510306D4DA68120307D5D0F83C317B
:1055580006211847D0F8383106211847DA68910231
:1055680006D4DA68520206D5D0F828310621184741
:10557800D0F820311847DB68DB0203D5D0F82C318E
:1055880006211847704700BF806AD0F824311847B1
:105598000346806AD0F8E020934217D0D0F8E42080
:1055A800934214D0D0F8E82093422ED0D0F8EC20C3
:1055B800934242D0D0F8F020934241D0D0F8F42062
:1055C800934245D0D0F8F820934226D07047002364
:1055D800194602684FEAC31C02EBC31310B4D3F890
:1055E8008C40E40304D5D0F830315DF8044B1847FB
:1055F800D3F88C40A4030BD4D3F88C4064030FD5A4
:10560800D0F838315DF8044B184701231946E0E714
:10561800D0F834315DF8044B184705231946D8E70C
:10562800D3F88C4024030ED4D3F88C40640212D5EE
:10563800D0F828315DF8044B184702231946C8E70B
:1056480003231946C5E7D0F83C315DF8044B1847E9
:1056580004231946BDE7D3F88C40240204D5D0F8BA
:1056680040315DF8044B1847D3F88C40E40104D569
:10567800D0F844315DF8044B1847D3F88C40A401A6
:1056880004D5D0F850315DF8044B1847D3F88C4056
:10569800640104D5D0F854315DF8044B1847D3F8A9
:1056A8008C301B0104D5D0F858315DF8044B1847ED
:1056B8006244D2F88C30DC0004D5D0F85C315DF857
:1056C800044B1847D2F88C309B0004D5D0F84C31E5
:1056D8005DF8044B1847D2F88C305C0004D5D0F83C
:1056E80048315DF8044B1847D2F88C30DB0204D5FA
:1056F800D0F82C315DF8044B18475DF8044B70471F
:10570800704700BF704700BF704700BF704700BFB9
:10571800704700BF704700BF704700BF704700BFA9
:10572800704700BF704700BF704700BF704700BF99
:10573800704700BF704700BF704700BF704700BF89
:10574800704700BF704700BF704700BF704700BF79
:10575800704700BF704700BF704700BF704700BF69
:10576800704700BF002800F0A68010B590F8DD3023
:10577800D0F8642182B00446002B35D15549564BE8
:105788005648C4E93F13564B5649C4E94103564BA2
:105798005648C4E94313564B5649C4E94503564B8A
:1057A8005648C4E94713564B5649C4E94903564B72
:1057B8005648C4E94B13564B5649C4E94D03564B5A
:1057C8005648C4E94F13564B5649C4E95103564B42
:1057D8005648C4E95313564B5649C4E95503564B2A
:1057E800C4E95713002A62D0A16800230220C90720
:1057F800C4E93833C4E93A33C4E93C3384F8DD00FA
:10580800C4F8F8300FD520684C4B984255D0016841
:10581800236921F4704103F440431943636903F495
:1058280040530B43036020469047A3689B0708D565
:105838002168E3680A6803F4407322F44072134352
:105848000B60002301221846C4E90633C4E9083373
:10585800C4E90C33C4E90E33C4E91033C4E9133383
:10586800C4E91533C4E91733C4E91A33C4E91C334E
:10587800C4E91E33C4E92133C4E92333C4E9253319
:1058880084F8DD2084F8DC30A362C4F8A030C4E9D1
:105898002933C4E92B33C4E92F33C4E93133C4E9CC
:1058A8003333C4F8B430C4F8D83002B010BD244A39
:1058B800C4F8642198E70120704703F52843196E5E
:1058C80041F0806119661B6E03F080630193019BB0
:1058D8009DE700BF41570008455700084957000891
:1058E8004D570008515700085557000859570008E8
:1058F8005D57000861570008655700086957000898
:1059080025550008095700080D57000811570008C9
:1059180015570008195700081D5700082157000897
:1059280025570008295700082D5700083157000847
:1059380035570008395700083D57000800680140EE
:10594800DD12000890F8DC30012B30D00223012250
:1059580080F8DD30036880F8DC20B1F1FF3FD3F830
:10596800CC2315D042F00202C3F8CC23D3F8CC23C1
:1059780022F00C020A43C3F8CC23D3F8CC2342F01C
:105988000102C3F8CC23012380F8DD3000207047E2
:1059980022F00202C3F8CC23D3F8CC2342F0010250
:1059A800C3F8CC23012380F8DD30002070470220A3
:1059B800704700BF70B50D460446FDF755FD6E1CD7
:1059C80010D00646D5B12368D3F88833D8030ED44F
:1059D800FDF74AFD801B8542F5D2072384F8DD30A8
:1059E800032070BD2268D2F88833D903FBD5002084
:1059F800012384F8DD3084F8DC0070BD2368D3F817
:105A08008833DB03F3D4FDF72FFDE6E790F8DDC01C
:105A1800BCF1020F2CD003460220F0B4062983F80B
:105A2800DD00D2E90276D2E90045186815D000EB0E
:105A3800C111D1F8802022F007023A4322F018025F
:105A48003243C1F88020C1F89440C1F8985001222F
:105A580083F8DD200020F0BC7047026822F00702BE
:105A68003A4322F018023243026044618561EEE74E
:105A78005FFA8CF0704700BF90F8DDC0BCF1020FF0
:105A880003465FFA8CF03ED093F8DC00012800F062
:105A9800258170B41868022483F8DD40D0F8B0631B
:105AA800D0F8B453D0F8B8430A2924D8DFE811F065
:105AB80045004D0064007E009900B400CF00E50069
:105AC800FD000B002C00116856688904B60406F422
